{
  "_format": "hh-sol-artifact-1",
  "contractName": "MFKFM",
  "sourceName": "contracts/WavePortal.sol",
  "abi": [
    {
      "inputs": [],
      "stateMutability": "payable",
      "type": "constructor"
    },
    {
      "anonymous": false,
      "inputs": [
        {
          "indexed": true,
          "internalType": "address",
          "name": "from",
          "type": "address"
        },
        {
          "indexed": false,
          "internalType": "uint256",
          "name": "timestamp",
          "type": "uint256"
        },
        {
          "indexed": false,
          "internalType": "string",
          "name": "message",
          "type": "string"
        }
      ],
      "name": "NewVideo",
      "type": "event"
    },
    {
      "inputs": [
        {
          "internalType": "string",
          "name": "_message",
          "type": "string"
        }
      ],
      "name": "AddVideo",
      "outputs": [],
      "stateMutability": "nonpayable",
      "type": "function"
    },
    {
      "inputs": [],
      "name": "getAllVideos",
      "outputs": [
        {
          "components": [
            {
              "internalType": "address",
              "name": "videoSender",
              "type": "address"
            },
            {
              "internalType": "string",
              "name": "message",
              "type": "string"
            },
            {
              "internalType": "uint256",
              "name": "timestamp",
              "type": "uint256"
            }
          ],
          "internalType": "struct MFKFM.Video[]",
          "name": "",
          "type": "tuple[]"
        }
      ],
      "stateMutability": "view",
      "type": "function"
    },
    {
      "inputs": [],
      "name": "getTotalVideos",
      "outputs": [
        {
          "internalType": "uint256",
          "name": "",
          "type": "uint256"
        }
      ],
      "stateMutability": "view",
      "type": "function"
    },
    {
      "inputs": [
        {
          "internalType": "address",
          "name": "",
          "type": "address"
        }
      ],
      "name": "lastSentVideos",
      "outputs": [
        {
          "internalType": "uint256",
          "name": "",
          "type": "uint256"
        }
      ],
      "stateMutability": "view",
      "type": "function"
    }
  ],
  "bytecode": "0x6080604052620000336040518060600160405280602d8152602001620013fe602d91396200005b60201b6200064a1760201c565b60644442620000439190620001a8565b6200004f919062000245565b600181905550620002ec565b620000fb8160405160240162000072919062000168565b6040516020818303038152906040527f41304fac000000000000000000000000000000000000000000000000000000007bffffffffffffffffffffffffffffffffffffffffffffffffffffffff19166020820180517bffffffffffffffffffffffffffffffffffffffffffffffffffffffff8381831617835250505050620000fe60201b60201c565b50565b60008151905060006a636f6e736f6c652e6c6f679050602083016000808483855afa5050505050565b600062000134826200018c565b62000140818562000197565b9350620001528185602086016200020f565b6200015d81620002db565b840191505092915050565b6000602082019050818103600083015262000184818462000127565b905092915050565b600081519050919050565b600082825260208201905092915050565b6000620001b58262000205565b9150620001c28362000205565b9250827fffffffffffffffffffffffffffffffffffffffffffffffffffffffffffffffff03821115620001fa57620001f96200027d565b5b828201905092915050565b6000819050919050565b60005b838110156200022f57808201518184015260208101905062000212565b838111156200023f576000848401525b50505050565b6000620002528262000205565b91506200025f8362000205565b925082620002725762000271620002ac565b5b828206905092915050565b7f4e487b7100000000000000000000000000000000000000000000000000000000600052601160045260246000fd5b7f4e487b7100000000000000000000000000000000000000000000000000000000600052601260045260246000fd5b6000601f19601f8301169050919050565b61110280620002fc6000396000f3fe608060405234801561001057600080fd5b506004361061004c5760003560e01c8063043e2f42146100515780631e01df3d1461006f578063c38e34341461008b578063c6654b48146100a9575b600080fd5b6100596100d9565b6040516100669190610d94565b60405180910390f35b6100896004803603810190610084919061098d565b610124565b005b6100936104e1565b6040516100a09190610c90565b60405180910390f35b6100c360048036038101906100be9190610964565b610632565b6040516100d09190610d94565b60405180910390f35b600061011c6040518060400160405280601881526020017f5765206861766520256420746f74616c20566964656f732100000000000000008152506000546106e3565b600054905090565b4262ed4e00600360003373ffffffffffffffffffffffffffffffffffffffff1673ffffffffffffffffffffffffffffffffffffffff168152602001908152602001600020546101739190610eb1565b106101b3576040517f08c379a00000000000000000000000000000000000000000000000000000000081526004016101aa90610d54565b60405180910390fd5b42600360003373ffffffffffffffffffffffffffffffffffffffff1673ffffffffffffffffffffffffffffffffffffffff1681526020019081526020016000208190555060016000808282546102099190610eb1565b9250508190555061024f6040518060400160405280601281526020017f2573206861732073656e7420566964656f2100000000000000000000000000008152503361077f565b600260405180606001604052803373ffffffffffffffffffffffffffffffffffffffff16815260200183815260200142815250908060018154018082558091505060019003906000526020600020906003020160009091909190915060008201518160000160006101000a81548173ffffffffffffffffffffffffffffffffffffffff021916908373ffffffffffffffffffffffffffffffffffffffff160217905550602082015181600101908051906020019061030e929190610844565b506040820151816002015550506064600154424461032c9190610eb1565b6103369190610eb1565b6103409190610fb7565b6001819055506103876040518060400160405280601681526020017f52616e646f6d20232067656e6572617465643a202564000000000000000000008152506001546106e3565b60018054101561048e576000655af3107a40009050478111156103df576040517f08c379a00000000000000000000000000000000000000000000000000000000081526004016103d690610d34565b60405180910390fd5b60003373ffffffffffffffffffffffffffffffffffffffff168260405161040590610c7b565b60006040518083038185875af1925050503d8060008114610442576040519150601f19603f3d011682016040523d82523d6000602084013e610447565b606091505b505090508061048b576040517f08c379a000000000000000000000000000000000000000000000000000000000815260040161048290610d74565b60405180910390fd5b50505b3373ffffffffffffffffffffffffffffffffffffffff167f556dd6d6f534155836286491ee598971153c6835914143bd17ef1519e4571f5e42836040516104d6929190610daf565b60405180910390a250565b60606002805480602002602001604051908101604052809291908181526020016000905b8282101561062957838290600052602060002090600302016040518060600160405290816000820160009054906101000a900473ffffffffffffffffffffffffffffffffffffffff1673ffffffffffffffffffffffffffffffffffffffff1673ffffffffffffffffffffffffffffffffffffffff16815260200160018201805461058e90610f85565b80601f01602080910402602001604051908101604052809291908181526020018280546105ba90610f85565b80156106075780601f106105dc57610100808354040283529160200191610607565b820191906000526020600020905b8154815290600101906020018083116105ea57829003601f168201915b5050505050815260200160028201548152505081526020019060010190610505565b50505050905090565b60036020528060005260406000206000915090505481565b6106e08160405160240161065e9190610cb2565b6040516020818303038152906040527f41304fac000000000000000000000000000000000000000000000000000000007bffffffffffffffffffffffffffffffffffffffffffffffffffffffff19166020820180517bffffffffffffffffffffffffffffffffffffffffffffffffffffffff838183161783525050505061081b565b50565b61077b82826040516024016106f9929190610d04565b6040516020818303038152906040527f9710a9d0000000000000000000000000000000000000000000000000000000007bffffffffffffffffffffffffffffffffffffffffffffffffffffffff19166020820180517bffffffffffffffffffffffffffffffffffffffffffffffffffffffff838183161783525050505061081b565b5050565b6108178282604051602401610795929190610cd4565b6040516020818303038152906040527f319af333000000000000000000000000000000000000000000000000000000007bffffffffffffffffffffffffffffffffffffffffffffffffffffffff19166020820180517bffffffffffffffffffffffffffffffffffffffffffffffffffffffff838183161783525050505061081b565b5050565b60008151905060006a636f6e736f6c652e6c6f679050602083016000808483855afa5050505050565b82805461085090610f85565b90600052602060002090601f01602090048101928261087257600085556108b9565b82601f1061088b57805160ff19168380011785556108b9565b828001600101855582156108b9579182015b828111156108b857825182559160200191906001019061089d565b5b5090506108c691906108ca565b5090565b5b808211156108e35760008160009055506001016108cb565b5090565b60006108fa6108f584610e10565b610ddf565b90508281526020810184848401111561091257600080fd5b61091d848285610f43565b509392505050565b600081359050610934816110b5565b92915050565b600082601f83011261094b57600080fd5b813561095b8482602086016108e7565b91505092915050565b60006020828403121561097657600080fd5b600061098484828501610925565b91505092915050565b60006020828403121561099f57600080fd5b600082013567ffffffffffffffff8111156109b957600080fd5b6109c58482850161093a565b91505092915050565b60006109da8383610c0d565b905092915050565b6109eb81610f07565b82525050565b6109fa81610f07565b82525050565b6000610a0b82610e50565b610a158185610e73565b935083602082028501610a2785610e40565b8060005b85811015610a635784840389528151610a4485826109ce565b9450610a4f83610e66565b925060208a01995050600181019050610a2b565b50829750879550505050505092915050565b6000610a8082610e5b565b610a8a8185610e8f565b9350610a9a818560208601610f52565b610aa3816110a4565b840191505092915050565b6000610ab982610e5b565b610ac38185610ea0565b9350610ad3818560208601610f52565b610adc816110a4565b840191505092915050565b6000610af4603483610ea0565b91507f547279696e6720746f207769746864726177206d6f7265206d6f6e657920746860008301527f616e2074686520636f6e7472616374206861732e0000000000000000000000006020830152604082019050919050565b6000610b5a600d83610ea0565b91507f57616974203138302064617973000000000000000000000000000000000000006000830152602082019050919050565b6000610b9a602783610ea0565b91507f4661696c656420746f207769746864726177206d6f6e65792066726f6d20636f60008301527f6e74726163742e000000000000000000000000000000000000000000000000006020830152604082019050919050565b6000610c00600083610e84565b9150600082019050919050565b6000606083016000830151610c2560008601826109e2565b5060208301518482036020860152610c3d8282610a75565b9150506040830151610c526040860182610c5d565b508091505092915050565b610c6681610f39565b82525050565b610c7581610f39565b82525050565b6000610c8682610bf3565b9150819050919050565b60006020820190508181036000830152610caa8184610a00565b905092915050565b60006020820190508181036000830152610ccc8184610aae565b905092915050565b60006040820190508181036000830152610cee8185610aae565b9050610cfd60208301846109f1565b9392505050565b60006040820190508181036000830152610d1e8185610aae565b9050610d2d6020830184610c6c565b9392505050565b60006020820190508181036000830152610d4d81610ae7565b9050919050565b60006020820190508181036000830152610d6d81610b4d565b9050919050565b60006020820190508181036000830152610d8d81610b8d565b9050919050565b6000602082019050610da96000830184610c6c565b92915050565b6000604082019050610dc46000830185610c6c565b8181036020830152610dd68184610aae565b90509392505050565b6000604051905081810181811067ffffffffffffffff82111715610e0657610e05611075565b5b8060405250919050565b600067ffffffffffffffff821115610e2b57610e2a611075565b5b601f19601f8301169050602081019050919050565b6000819050602082019050919050565b600081519050919050565b600081519050919050565b6000602082019050919050565b600082825260208201905092915050565b600081905092915050565b600082825260208201905092915050565b600082825260208201905092915050565b6000610ebc82610f39565b9150610ec783610f39565b9250827fffffffffffffffffffffffffffffffffffffffffffffffffffffffffffffffff03821115610efc57610efb610fe8565b5b828201905092915050565b6000610f1282610f19565b9050919050565b600073ffffffffffffffffffffffffffffffffffffffff82169050919050565b6000819050919050565b82818337600083830152505050565b60005b83811015610f70578082015181840152602081019050610f55565b83811115610f7f576000848401525b50505050565b60006002820490506001821680610f9d57607f821691505b60208210811415610fb157610fb0611046565b5b50919050565b6000610fc282610f39565b9150610fcd83610f39565b925082610fdd57610fdc611017565b5b828206905092915050565b7f4e487b7100000000000000000000000000000000000000000000000000000000600052601160045260246000fd5b7f4e487b7100000000000000000000000000000000000000000000000000000000600052601260045260246000fd5b7f4e487b7100000000000000000000000000000000000000000000000000000000600052602260045260246000fd5b7f4e487b7100000000000000000000000000000000000000000000000000000000600052604160045260246000fd5b6000601f19601f8301169050919050565b6110be81610f07565b81146110c957600080fd5b5056fea264697066735822122004456cec35e3c2c68605e98f1f741812a1c932106b6741ab02894a798e94eded64736f6c6343000800003348656c6c6f20776f726c642066726f6d2074686520666972737420736d61727420636f6e7472616374203a2920",
  "linkReferences": {},
  "deployedLinkReferences": {}
}