{
  "_format": "hh-sol-artifact-1",
  "contractName": "MFKFM",
  "sourceName": "contracts/WavePortal.sol",
  "abi": [
    {
      "inputs": [],
      "stateMutability": "payable",
      "type": "constructor"
    },
    {
      "anonymous": false,
      "inputs": [
        {
          "indexed": true,
          "internalType": "address",
          "name": "from",
          "type": "address"
        },
        {
          "indexed": false,
          "internalType": "uint256",
          "name": "timestamp",
          "type": "uint256"
        },
        {
          "indexed": false,
          "internalType": "string",
          "name": "message",
          "type": "string"
        }
      ],
      "name": "NewVideo",
      "type": "event"
    },
    {
      "inputs": [
        {
          "internalType": "string",
          "name": "_message",
          "type": "string"
        }
      ],
      "name": "AddVideo",
      "outputs": [],
      "stateMutability": "nonpayable",
      "type": "function"
    },
    {
      "inputs": [],
      "name": "getAllVideos",
      "outputs": [
        {
          "components": [
            {
              "internalType": "address",
              "name": "videoSender",
              "type": "address"
            },
            {
              "internalType": "string",
              "name": "message",
              "type": "string"
            },
            {
              "internalType": "uint256",
              "name": "timestamp",
              "type": "uint256"
            }
          ],
          "internalType": "struct MFKFM.Video[]",
          "name": "",
          "type": "tuple[]"
        }
      ],
      "stateMutability": "view",
      "type": "function"
    },
    {
      "inputs": [],
      "name": "getTotalVideos",
      "outputs": [
        {
          "internalType": "uint256",
          "name": "",
          "type": "uint256"
        }
      ],
      "stateMutability": "view",
      "type": "function"
    },
    {
      "inputs": [
        {
          "internalType": "address",
          "name": "",
          "type": "address"
        }
      ],
      "name": "lastSentVideos",
      "outputs": [
        {
          "internalType": "uint256",
          "name": "",
          "type": "uint256"
        }
      ],
      "stateMutability": "view",
      "type": "function"
    }
  ],
  "bytecode": "0x6080604052620000336040518060600160405280602d8152602001620013ff602d91396200005b60201b6200064b1760201c565b60644442620000439190620001a8565b6200004f919062000245565b600181905550620002ec565b620000fb8160405160240162000072919062000168565b6040516020818303038152906040527f41304fac000000000000000000000000000000000000000000000000000000007bffffffffffffffffffffffffffffffffffffffffffffffffffffffff19166020820180517bffffffffffffffffffffffffffffffffffffffffffffffffffffffff8381831617835250505050620000fe60201b60201c565b50565b60008151905060006a636f6e736f6c652e6c6f679050602083016000808483855afa5050505050565b600062000134826200018c565b62000140818562000197565b9350620001528185602086016200020f565b6200015d81620002db565b840191505092915050565b6000602082019050818103600083015262000184818462000127565b905092915050565b600081519050919050565b600082825260208201905092915050565b6000620001b58262000205565b9150620001c28362000205565b9250827fffffffffffffffffffffffffffffffffffffffffffffffffffffffffffffffff03821115620001fa57620001f96200027d565b5b828201905092915050565b6000819050919050565b60005b838110156200022f57808201518184015260208101905062000212565b838111156200023f576000848401525b50505050565b6000620002528262000205565b91506200025f8362000205565b925082620002725762000271620002ac565b5b828206905092915050565b7f4e487b7100000000000000000000000000000000000000000000000000000000600052601160045260246000fd5b7f4e487b7100000000000000000000000000000000000000000000000000000000600052601260045260246000fd5b6000601f19601f8301169050919050565b61110380620002fc6000396000f3fe608060405234801561001057600080fd5b506004361061004c5760003560e01c8063043e2f42146100515780631e01df3d1461006f578063c38e34341461008b578063c6654b48146100a9575b600080fd5b6100596100d9565b6040516100669190610d95565b60405180910390f35b6100896004803603810190610084919061098e565b610124565b005b6100936104e2565b6040516100a09190610c91565b60405180910390f35b6100c360048036038101906100be9190610965565b610633565b6040516100d09190610d95565b60405180910390f35b600061011c6040518060400160405280601881526020017f5765206861766520256420746f74616c20566964656f732100000000000000008152506000546106e4565b600054905090565b4262ed4e00600360003373ffffffffffffffffffffffffffffffffffffffff1673ffffffffffffffffffffffffffffffffffffffff168152602001908152602001600020546101739190610eb2565b106101b3576040517f08c379a00000000000000000000000000000000000000000000000000000000081526004016101aa90610d55565b60405180910390fd5b42600360003373ffffffffffffffffffffffffffffffffffffffff1673ffffffffffffffffffffffffffffffffffffffff1681526020019081526020016000208190555060016000808282546102099190610eb2565b9250508190555061024f6040518060400160405280601281526020017f2573206861732073656e7420566964656f21000000000000000000000000000081525033610780565b600260405180606001604052803373ffffffffffffffffffffffffffffffffffffffff16815260200183815260200142815250908060018154018082558091505060019003906000526020600020906003020160009091909190915060008201518160000160006101000a81548173ffffffffffffffffffffffffffffffffffffffff021916908373ffffffffffffffffffffffffffffffffffffffff160217905550602082015181600101908051906020019061030e929190610845565b506040820151816002015550506064600154424461032c9190610eb2565b6103369190610eb2565b6103409190610fb8565b6001819055506103876040518060400160405280601681526020017f52616e646f6d20232067656e6572617465643a202564000000000000000000008152506001546106e4565b6032600154101561048f576000655af3107a40009050478111156103e0576040517f08c379a00000000000000000000000000000000000000000000000000000000081526004016103d790610d35565b60405180910390fd5b60003373ffffffffffffffffffffffffffffffffffffffff168260405161040690610c7c565b60006040518083038185875af1925050503d8060008114610443576040519150601f19603f3d011682016040523d82523d6000602084013e610448565b606091505b505090508061048c576040517f08c379a000000000000000000000000000000000000000000000000000000000815260040161048390610d75565b60405180910390fd5b50505b3373ffffffffffffffffffffffffffffffffffffffff167f556dd6d6f534155836286491ee598971153c6835914143bd17ef1519e4571f5e42836040516104d7929190610db0565b60405180910390a250565b60606002805480602002602001604051908101604052809291908181526020016000905b8282101561062a57838290600052602060002090600302016040518060600160405290816000820160009054906101000a900473ffffffffffffffffffffffffffffffffffffffff1673ffffffffffffffffffffffffffffffffffffffff1673ffffffffffffffffffffffffffffffffffffffff16815260200160018201805461058f90610f86565b80601f01602080910402602001604051908101604052809291908181526020018280546105bb90610f86565b80156106085780601f106105dd57610100808354040283529160200191610608565b820191906000526020600020905b8154815290600101906020018083116105eb57829003601f168201915b5050505050815260200160028201548152505081526020019060010190610506565b50505050905090565b60036020528060005260406000206000915090505481565b6106e18160405160240161065f9190610cb3565b6040516020818303038152906040527f41304fac000000000000000000000000000000000000000000000000000000007bffffffffffffffffffffffffffffffffffffffffffffffffffffffff19166020820180517bffffffffffffffffffffffffffffffffffffffffffffffffffffffff838183161783525050505061081c565b50565b61077c82826040516024016106fa929190610d05565b6040516020818303038152906040527f9710a9d0000000000000000000000000000000000000000000000000000000007bffffffffffffffffffffffffffffffffffffffffffffffffffffffff19166020820180517bffffffffffffffffffffffffffffffffffffffffffffffffffffffff838183161783525050505061081c565b5050565b6108188282604051602401610796929190610cd5565b6040516020818303038152906040527f319af333000000000000000000000000000000000000000000000000000000007bffffffffffffffffffffffffffffffffffffffffffffffffffffffff19166020820180517bffffffffffffffffffffffffffffffffffffffffffffffffffffffff838183161783525050505061081c565b5050565b60008151905060006a636f6e736f6c652e6c6f679050602083016000808483855afa5050505050565b82805461085190610f86565b90600052602060002090601f01602090048101928261087357600085556108ba565b82601f1061088c57805160ff19168380011785556108ba565b828001600101855582156108ba579182015b828111156108b957825182559160200191906001019061089e565b5b5090506108c791906108cb565b5090565b5b808211156108e45760008160009055506001016108cc565b5090565b60006108fb6108f684610e11565b610de0565b90508281526020810184848401111561091357600080fd5b61091e848285610f44565b509392505050565b600081359050610935816110b6565b92915050565b600082601f83011261094c57600080fd5b813561095c8482602086016108e8565b91505092915050565b60006020828403121561097757600080fd5b600061098584828501610926565b91505092915050565b6000602082840312156109a057600080fd5b600082013567ffffffffffffffff8111156109ba57600080fd5b6109c68482850161093b565b91505092915050565b60006109db8383610c0e565b905092915050565b6109ec81610f08565b82525050565b6109fb81610f08565b82525050565b6000610a0c82610e51565b610a168185610e74565b935083602082028501610a2885610e41565b8060005b85811015610a645784840389528151610a4585826109cf565b9450610a5083610e67565b925060208a01995050600181019050610a2c565b50829750879550505050505092915050565b6000610a8182610e5c565b610a8b8185610e90565b9350610a9b818560208601610f53565b610aa4816110a5565b840191505092915050565b6000610aba82610e5c565b610ac48185610ea1565b9350610ad4818560208601610f53565b610add816110a5565b840191505092915050565b6000610af5603483610ea1565b91507f547279696e6720746f207769746864726177206d6f7265206d6f6e657920746860008301527f616e2074686520636f6e7472616374206861732e0000000000000000000000006020830152604082019050919050565b6000610b5b600d83610ea1565b91507f57616974203138302064617973000000000000000000000000000000000000006000830152602082019050919050565b6000610b9b602783610ea1565b91507f4661696c656420746f207769746864726177206d6f6e65792066726f6d20636f60008301527f6e74726163742e000000000000000000000000000000000000000000000000006020830152604082019050919050565b6000610c01600083610e85565b9150600082019050919050565b6000606083016000830151610c2660008601826109e3565b5060208301518482036020860152610c3e8282610a76565b9150506040830151610c536040860182610c5e565b508091505092915050565b610c6781610f3a565b82525050565b610c7681610f3a565b82525050565b6000610c8782610bf4565b9150819050919050565b60006020820190508181036000830152610cab8184610a01565b905092915050565b60006020820190508181036000830152610ccd8184610aaf565b905092915050565b60006040820190508181036000830152610cef8185610aaf565b9050610cfe60208301846109f2565b9392505050565b60006040820190508181036000830152610d1f8185610aaf565b9050610d2e6020830184610c6d565b9392505050565b60006020820190508181036000830152610d4e81610ae8565b9050919050565b60006020820190508181036000830152610d6e81610b4e565b9050919050565b60006020820190508181036000830152610d8e81610b8e565b9050919050565b6000602082019050610daa6000830184610c6d565b92915050565b6000604082019050610dc56000830185610c6d565b8181036020830152610dd78184610aaf565b90509392505050565b6000604051905081810181811067ffffffffffffffff82111715610e0757610e06611076565b5b8060405250919050565b600067ffffffffffffffff821115610e2c57610e2b611076565b5b601f19601f8301169050602081019050919050565b6000819050602082019050919050565b600081519050919050565b600081519050919050565b6000602082019050919050565b600082825260208201905092915050565b600081905092915050565b600082825260208201905092915050565b600082825260208201905092915050565b6000610ebd82610f3a565b9150610ec883610f3a565b9250827fffffffffffffffffffffffffffffffffffffffffffffffffffffffffffffffff03821115610efd57610efc610fe9565b5b828201905092915050565b6000610f1382610f1a565b9050919050565b600073ffffffffffffffffffffffffffffffffffffffff82169050919050565b6000819050919050565b82818337600083830152505050565b60005b83811015610f71578082015181840152602081019050610f56565b83811115610f80576000848401525b50505050565b60006002820490506001821680610f9e57607f821691505b60208210811415610fb257610fb1611047565b5b50919050565b6000610fc382610f3a565b9150610fce83610f3a565b925082610fde57610fdd611018565b5b828206905092915050565b7f4e487b7100000000000000000000000000000000000000000000000000000000600052601160045260246000fd5b7f4e487b7100000000000000000000000000000000000000000000000000000000600052601260045260246000fd5b7f4e487b7100000000000000000000000000000000000000000000000000000000600052602260045260246000fd5b7f4e487b7100000000000000000000000000000000000000000000000000000000600052604160045260246000fd5b6000601f19601f8301169050919050565b6110bf81610f08565b81146110ca57600080fd5b5056fea2646970667358221220cc28a1b44ccf0cdecc00b164e48c574e5027281c24606ab8a51f7e37b0f19b4664736f6c6343000800003348656c6c6f20776f726c642066726f6d2074686520666972737420736d61727420636f6e7472616374203a2920",
  "linkReferences": {},
  "deployedLinkReferences": {}
}