{
  "_format": "hh-sol-artifact-1",
  "contractName": "WavePortal",
  "sourceName": "contracts/WavePortal.sol",
  "abi": [
    {
      "inputs": [],
      "stateMutability": "payable",
      "type": "constructor"
    },
    {
      "anonymous": false,
      "inputs": [
        {
          "indexed": true,
          "internalType": "address",
          "name": "from",
          "type": "address"
        },
        {
          "indexed": false,
          "internalType": "uint256",
          "name": "timestamp",
          "type": "uint256"
        },
        {
          "indexed": false,
          "internalType": "string",
          "name": "message",
          "type": "string"
        }
      ],
      "name": "NewWave",
      "type": "event"
    },
    {
      "inputs": [],
      "name": "getAllWaves",
      "outputs": [
        {
          "components": [
            {
              "internalType": "address",
              "name": "waver",
              "type": "address"
            },
            {
              "internalType": "string",
              "name": "message",
              "type": "string"
            },
            {
              "internalType": "uint256",
              "name": "timestamp",
              "type": "uint256"
            }
          ],
          "internalType": "struct WavePortal.Wave[]",
          "name": "",
          "type": "tuple[]"
        }
      ],
      "stateMutability": "view",
      "type": "function"
    },
    {
      "inputs": [],
      "name": "getTotalWaves",
      "outputs": [
        {
          "internalType": "uint256",
          "name": "",
          "type": "uint256"
        }
      ],
      "stateMutability": "view",
      "type": "function"
    },
    {
      "inputs": [
        {
          "internalType": "address",
          "name": "",
          "type": "address"
        }
      ],
      "name": "lastWavedAt",
      "outputs": [
        {
          "internalType": "uint256",
          "name": "",
          "type": "uint256"
        }
      ],
      "stateMutability": "view",
      "type": "function"
    },
    {
      "inputs": [],
      "name": "specialWave",
      "outputs": [
        {
          "internalType": "string",
          "name": "",
          "type": "string"
        }
      ],
      "stateMutability": "nonpayable",
      "type": "function"
    },
    {
      "inputs": [
        {
          "internalType": "string",
          "name": "_message",
          "type": "string"
        }
      ],
      "name": "wave",
      "outputs": [],
      "stateMutability": "nonpayable",
      "type": "function"
    }
  ],
  "bytecode": "0x6080604052620000336040518060600160405280602d8152602001620014e2602d91396200005b60201b620006ea1760201c565b60644442620000439190620001a8565b6200004f919062000245565b600181905550620002ec565b620000fb8160405160240162000072919062000168565b6040516020818303038152906040527f41304fac000000000000000000000000000000000000000000000000000000007bffffffffffffffffffffffffffffffffffffffffffffffffffffffff19166020820180517bffffffffffffffffffffffffffffffffffffffffffffffffffffffff8381831617835250505050620000fe60201b60201c565b50565b60008151905060006a636f6e736f6c652e6c6f679050602083016000808483855afa5050505050565b600062000134826200018c565b62000140818562000197565b9350620001528185602086016200020f565b6200015d81620002db565b840191505092915050565b6000602082019050818103600083015262000184818462000127565b905092915050565b600081519050919050565b600082825260208201905092915050565b6000620001b58262000205565b9150620001c28362000205565b9250827fffffffffffffffffffffffffffffffffffffffffffffffffffffffffffffffff03821115620001fa57620001f96200027d565b5b828201905092915050565b6000819050919050565b60005b838110156200022f57808201518184015260208101905062000212565b838111156200023f576000848401525b50505050565b6000620002528262000205565b91506200025f8362000205565b925082620002725762000271620002ac565b5b828206905092915050565b7f4e487b7100000000000000000000000000000000000000000000000000000000600052601160045260246000fd5b7f4e487b7100000000000000000000000000000000000000000000000000000000600052601260045260246000fd5b6000601f19601f8301169050919050565b6111e680620002fc6000396000f3fe608060405234801561001057600080fd5b50600436106100575760003560e01c806338be361b1461005c578063449d46c01461007a5780639a2cdc0814610096578063a42a4663146100b4578063bd43a908146100e4575b600080fd5b610064610102565b6040516100719190610d52565b60405180910390f35b610094600480360381019061008f9190610a2d565b61017a565b005b61009e610536565b6040516100ab9190610e34565b60405180910390f35b6100ce60048036038101906100c99190610a04565b610581565b6040516100db9190610e34565b60405180910390f35b6100ec610599565b6040516100f99190610d30565b60405180910390f35b606060016000808282546101169190610f51565b9250508190555061015c6040518060400160405280601581526020017f257320686173207370656369616c20776176656421000000000000000000000081525033610783565b60405180608001604052806044815260200161116d60449139905090565b42601e600360003373ffffffffffffffffffffffffffffffffffffffff1673ffffffffffffffffffffffffffffffffffffffff168152602001908152602001600020546101c79190610f51565b10610207576040517f08c379a00000000000000000000000000000000000000000000000000000000081526004016101fe90610df4565b60405180910390fd5b42600360003373ffffffffffffffffffffffffffffffffffffffff1673ffffffffffffffffffffffffffffffffffffffff16815260200190815260200160002081905550600160008082825461025d9190610f51565b925050819055506102a36040518060400160405280600d81526020017f257320686173207761766564210000000000000000000000000000000000000081525033610783565b600260405180606001604052803373ffffffffffffffffffffffffffffffffffffffff16815260200183815260200142815250908060018154018082558091505060019003906000526020600020906003020160009091909190915060008201518160000160006101000a81548173ffffffffffffffffffffffffffffffffffffffff021916908373ffffffffffffffffffffffffffffffffffffffff16021790555060208201518160010190805190602001906103629291906108e4565b50604082015181600201555050606460015442446103809190610f51565b61038a9190610f51565b6103949190611057565b6001819055506103db6040518060400160405280601681526020017f52616e646f6d20232067656e6572617465643a2025640000000000000000000081525060015461081f565b603260015410156104e3576000655af3107a4000905047811115610434576040517f08c379a000000000000000000000000000000000000000000000000000000000815260040161042b90610dd4565b60405180910390fd5b60003373ffffffffffffffffffffffffffffffffffffffff168260405161045a90610d1b565b60006040518083038185875af1925050503d8060008114610497576040519150601f19603f3d011682016040523d82523d6000602084013e61049c565b606091505b50509050806104e0576040517f08c379a00000000000000000000000000000000000000000000000000000000081526004016104d790610e14565b60405180910390fd5b50505b3373ffffffffffffffffffffffffffffffffffffffff167f5f7e16dc676677766a70e9c5628aa6c54ddb8b6e5188e2ae1e1f17f1ffbea716428360405161052b929190610e4f565b60405180910390a250565b60006105796040518060400160405280601781526020017f5765206861766520256420746f74616c2077617665732100000000000000000081525060005461081f565b600054905090565b60036020528060005260406000206000915090505481565b60606002805480602002602001604051908101604052809291908181526020016000905b828210156106e157838290600052602060002090600302016040518060600160405290816000820160009054906101000a900473ffffffffffffffffffffffffffffffffffffffff1673ffffffffffffffffffffffffffffffffffffffff1673ffffffffffffffffffffffffffffffffffffffff16815260200160018201805461064690611025565b80601f016020809104026020016040519081016040528092919081815260200182805461067290611025565b80156106bf5780601f10610694576101008083540402835291602001916106bf565b820191906000526020600020905b8154815290600101906020018083116106a257829003601f168201915b50505050508152602001600282015481525050815260200190600101906105bd565b50505050905090565b610780816040516024016106fe9190610d52565b6040516020818303038152906040527f41304fac000000000000000000000000000000000000000000000000000000007bffffffffffffffffffffffffffffffffffffffffffffffffffffffff19166020820180517bffffffffffffffffffffffffffffffffffffffffffffffffffffffff83818316178352505050506108bb565b50565b61081b8282604051602401610799929190610d74565b6040516020818303038152906040527f319af333000000000000000000000000000000000000000000000000000000007bffffffffffffffffffffffffffffffffffffffffffffffffffffffff19166020820180517bffffffffffffffffffffffffffffffffffffffffffffffffffffffff83818316178352505050506108bb565b5050565b6108b78282604051602401610835929190610da4565b6040516020818303038152906040527f9710a9d0000000000000000000000000000000000000000000000000000000007bffffffffffffffffffffffffffffffffffffffffffffffffffffffff19166020820180517bffffffffffffffffffffffffffffffffffffffffffffffffffffffff83818316178352505050506108bb565b5050565b60008151905060006a636f6e736f6c652e6c6f679050602083016000808483855afa5050505050565b8280546108f090611025565b90600052602060002090601f0160209004810192826109125760008555610959565b82601f1061092b57805160ff1916838001178555610959565b82800160010185558215610959579182015b8281111561095857825182559160200191906001019061093d565b5b509050610966919061096a565b5090565b5b8082111561098357600081600090555060010161096b565b5090565b600061099a61099584610eb0565b610e7f565b9050828152602081018484840111156109b257600080fd5b6109bd848285610fe3565b509392505050565b6000813590506109d481611155565b92915050565b600082601f8301126109eb57600080fd5b81356109fb848260208601610987565b91505092915050565b600060208284031215610a1657600080fd5b6000610a24848285016109c5565b91505092915050565b600060208284031215610a3f57600080fd5b600082013567ffffffffffffffff811115610a5957600080fd5b610a65848285016109da565b91505092915050565b6000610a7a8383610cad565b905092915050565b610a8b81610fa7565b82525050565b610a9a81610fa7565b82525050565b6000610aab82610ef0565b610ab58185610f13565b935083602082028501610ac785610ee0565b8060005b85811015610b035784840389528151610ae48582610a6e565b9450610aef83610f06565b925060208a01995050600181019050610acb565b50829750879550505050505092915050565b6000610b2082610efb565b610b2a8185610f2f565b9350610b3a818560208601610ff2565b610b4381611144565b840191505092915050565b6000610b5982610efb565b610b638185610f40565b9350610b73818560208601610ff2565b610b7c81611144565b840191505092915050565b6000610b94603483610f40565b91507f547279696e6720746f207769746864726177206d6f7265206d6f6e657920746860008301527f616e2074686520636f6e7472616374206861732e0000000000000000000000006020830152604082019050919050565b6000610bfa600f83610f40565b91507f57616974203330207365636f6e647300000000000000000000000000000000006000830152602082019050919050565b6000610c3a602783610f40565b91507f4661696c656420746f207769746864726177206d6f6e65792066726f6d20636f60008301527f6e74726163742e000000000000000000000000000000000000000000000000006020830152604082019050919050565b6000610ca0600083610f24565b9150600082019050919050565b6000606083016000830151610cc56000860182610a82565b5060208301518482036020860152610cdd8282610b15565b9150506040830151610cf26040860182610cfd565b508091505092915050565b610d0681610fd9565b82525050565b610d1581610fd9565b82525050565b6000610d2682610c93565b9150819050919050565b60006020820190508181036000830152610d4a8184610aa0565b905092915050565b60006020820190508181036000830152610d6c8184610b4e565b905092915050565b60006040820190508181036000830152610d8e8185610b4e565b9050610d9d6020830184610a91565b9392505050565b60006040820190508181036000830152610dbe8185610b4e565b9050610dcd6020830184610d0c565b9392505050565b60006020820190508181036000830152610ded81610b87565b9050919050565b60006020820190508181036000830152610e0d81610bed565b9050919050565b60006020820190508181036000830152610e2d81610c2d565b9050919050565b6000602082019050610e496000830184610d0c565b92915050565b6000604082019050610e646000830185610d0c565b8181036020830152610e768184610b4e565b90509392505050565b6000604051905081810181811067ffffffffffffffff82111715610ea657610ea5611115565b5b8060405250919050565b600067ffffffffffffffff821115610ecb57610eca611115565b5b601f19601f8301169050602081019050919050565b6000819050602082019050919050565b600081519050919050565b600081519050919050565b6000602082019050919050565b600082825260208201905092915050565b600081905092915050565b600082825260208201905092915050565b600082825260208201905092915050565b6000610f5c82610fd9565b9150610f6783610fd9565b9250827fffffffffffffffffffffffffffffffffffffffffffffffffffffffffffffffff03821115610f9c57610f9b611088565b5b828201905092915050565b6000610fb282610fb9565b9050919050565b600073ffffffffffffffffffffffffffffffffffffffff82169050919050565b6000819050919050565b82818337600083830152505050565b60005b83811015611010578082015181840152602081019050610ff5565b8381111561101f576000848401525b50505050565b6000600282049050600182168061103d57607f821691505b60208210811415611051576110506110e6565b5b50919050565b600061106282610fd9565b915061106d83610fd9565b92508261107d5761107c6110b7565b5b828206905092915050565b7f4e487b7100000000000000000000000000000000000000000000000000000000600052601160045260246000fd5b7f4e487b7100000000000000000000000000000000000000000000000000000000600052601260045260246000fd5b7f4e487b7100000000000000000000000000000000000000000000000000000000600052602260045260246000fd5b7f4e487b7100000000000000000000000000000000000000000000000000000000600052604160045260246000fd5b6000601f19601f8301169050919050565b61115e81610fa7565b811461116957600080fd5b5056fe68747470733a2f2f6d656469612e67697068792e636f6d2f6d656469612f736b4d773972385773505a5a304d57794a502f67697068792d646f776e73697a65642e676966a264697066735822122067a5b3a915356d94098f900ac57db3cb9f22cc3b32dfcf99f3110040ad7695ca64736f6c6343000800003348656c6c6f20776f726c642066726f6d2074686520666972737420736d61727420636f6e7472616374203a2920",
  "linkReferences": {},
  "deployedLinkReferences": {}
}